S0150000556172745F73656374696F6E312E73726563EE
S11300000C942A000C9447000C9447000C9447006D
S11300100C9447000C9447000C9447000C94470040
S11300200C9447000C9447000C9447000C94470030
S11300300C9447000C94B8010C9447000C94910163
S11300400C9447000C9447000C9447000C94470010
S11300500C94470011241FBECFE5D8E0DEBFCDBF0E
S113006010E0A0E6B0E0E8ECF3E002C005900D92E9
S1130070AE39B107D9F720E0AEE9B0E001C01D9276
S1130080A03AB207E1F70E94FD000C94E2010C943F
S11300900000C39A2FE788E391E02150804090400C
S11300A0E1F700C00000C39808958AB38F708ABB3B
S11300B0C29AC1980E9449008AB3806F8ABBC298D1
S11300C00895CF93C82F0E9455008BB38F709C2F37
S11300D0907F892B8BBB88B3897F88BB0E944900A2
S11300E08BB3282F2F7030E1C39FC0011124822BC2
S11300F08BBB88B3897F88BB0E944900CF91089548
S113010081E00E9461000895813039F4603168F41F
S113011080E8860F0E9461000895823031F46031D6
S113012020F480EC860F0E94610008958FE39CE91F
S11301300197F1F700C0000087B38E6087BB88B3D6
S1130140817F88BB8FEF8ABB8FE295E70197F1F738
S113015000C000000E94800082E00E94610088E2EA
S11301600E94610086E00E94610080E80E946100B4
S11301708FE00E9461000895CF93C82F8BB38F70D6
S11301809C2F907F892B8BBBC19AC2980E944900F7
S11301908BB3282F2F7030E1C39FC0011124822B11
S11301A08BBBC19AC2980E944900CF9108950F93C6
S11301B01F93CF93DF938C01C0E0D0E014C021964D
S11301C00E94BC00C031D10521F480EC0E94610082
S11301D00AC0C032D10539F40E94800080E80E9430
S11301E06100C0E0D0E0F80181918F018111E7CF77
S11301F0DF91CF911F910F910895CF93DF93CDB7E6
S1130200DEB7CE56D1090FB6F894DEBF0FBECDBF10
S11302100E9496000E94450160E080E00E948400F4
S113022088E0E2E6F0E0DE01119601900D928A95F5
S1130230E1F71A861986CE0101960E94D70088E05C
S1130240ECE6F0E0DE01DD9601900D928A95E1F78F
S1130250FE01EB5BFF4F8AE2DF011D928A95E9F70D
S1130260CE01CD960E94550160E082E00E94840098
S1130270CE010B960E946E01CE010B960E94D70010
S1130280CE010B960E945501EFCF83E389B980B567
S1130290826080BD539A549A08955D9BFECF8CB9B9
S11302A008955F9BFECF8CB108950F931F93CF9356
S11302B08C01FC018081882351F0C0E00E944D0133
S11302C0CF5FF801EC0FF11D8081C817B8F38DE002
S11302D00E944D01CF911F910F910895EF92FF92CB
S11302E00F931F93CF937C010E945101F7018083E8
S11302F08D3061F0C0E0CF5F87010C0F111D0E94AB
S11303005101F80180838D30B1F701C08701F801F4
S11303101082CF911F910F91FF90EF900895579AFB
S113032008951F920F920FB60F9211248F93EF939B
S1130330FF9380916000E0919E00F0919F00E80F90
S1130340F11D8081882339F08CB9809160008F5F22
S11303508093600005C081E0809360008093610019
S1130360FF91EF918F910F900FBE0F901F901895F2
S11303701F920F920FB60F9211242F933F934F9316
S11303805F936F937F938F939F93AF93BF93EF93F9
S1130390FF930E9496000E948F018CB18CB90E9439
S11303A0BC00FF91EF91BF91AF919F918F917F918D
S11303B06F915F914F913F912F910F900FBE0F90CE
S10B03C01F901895F894FFCF7B
S11303C80101554152542054520000004D6F686198
S11303D86D656400000000000000000000000000DB
S11303E80000000000000000000000000000000001
S11103F80000000000000000000000000000F3
S9030000FC
