S01700004763634170706C69636174696F6E312E737265635B
S11300000C942A000C9458000C9473000C948E00E9
S11300100C9434000C9434000C9434000C9434008C
S11300200C9434000C9434000C9434000C9434007C
S11300300C9434000C9434000C9434000C9434006C
S11300400C9434000C9434000C9434000C9434005C
S11300500C94340011241FBECFE5D8E0DEBFCDBF21
S11300600E9453000C94A9000C94000081B3837F78
S113007081BB81B3806E81BB81B38F7181BB0895D5
S113008085B7816085BF85B78D7F85BF85B788605B
S113009085BF84B78F7B84BF8BB7806E8BBF8FB7D0
S11300A080688FBF08950E9440000E943600FFCFF1
S11300B01F920F920FB60F9211242F938F939F9339
S11300C0959A2FEF89E698E1215080409040E1F71E
S11300D000C0000095989F918F912F910F900FBEB3
S11300E00F901F9018951F920F920FB60F92112424
S11300F02F938F939F93969A2FEF89E698E121503F
S113010080409040E1F700C0000096989F918F9145
S11301102F910F900FBE0F901F9018951F920F9262
S11301200FB60F9211242F938F939F93979A2FEFCB
S113013089E698E1215080409040E1F700C000003A
S113014097989F918F912F910F900FBE0F901F90B2
S10901501895F894FFCF9E
S9030000FC
